{
  "contractName": "EventTicketsV2",
  "abi": [
    {
      "constant": true,
      "inputs": [
        {
          "name": "",
          "type": "uint256"
        }
      ],
      "name": "events",
      "outputs": [
        {
          "name": "description",
          "type": "string"
        },
        {
          "name": "website",
          "type": "string"
        },
        {
          "name": "totalTickets",
          "type": "uint256"
        },
        {
          "name": "sales",
          "type": "uint256"
        },
        {
          "name": "isOpen",
          "type": "bool"
        },
        {
          "name": "id",
          "type": "uint256"
        }
      ],
      "payable": false,
      "stateMutability": "view",
      "type": "function"
    },
    {
      "constant": true,
      "inputs": [],
      "name": "idGenerator",
      "outputs": [
        {
          "name": "",
          "type": "uint256"
        }
      ],
      "payable": false,
      "stateMutability": "view",
      "type": "function"
    },
    {
      "inputs": [],
      "payable": false,
      "stateMutability": "nonpayable",
      "type": "constructor"
    },
    {
      "anonymous": false,
      "inputs": [
        {
          "indexed": false,
          "name": "desc",
          "type": "string"
        },
        {
          "indexed": false,
          "name": "url",
          "type": "string"
        },
        {
          "indexed": false,
          "name": "ticketsAvailable",
          "type": "uint256"
        },
        {
          "indexed": false,
          "name": "eventId",
          "type": "uint256"
        }
      ],
      "name": "LogEventAdded",
      "type": "event"
    },
    {
      "anonymous": false,
      "inputs": [
        {
          "indexed": false,
          "name": "buyer",
          "type": "address"
        },
        {
          "indexed": false,
          "name": "eventId",
          "type": "uint256"
        },
        {
          "indexed": false,
          "name": "numTickets",
          "type": "uint256"
        }
      ],
      "name": "LogBuyTickets",
      "type": "event"
    },
    {
      "anonymous": false,
      "inputs": [
        {
          "indexed": false,
          "name": "accountRefunded",
          "type": "address"
        },
        {
          "indexed": false,
          "name": "eventId",
          "type": "uint256"
        },
        {
          "indexed": false,
          "name": "numTickets",
          "type": "uint256"
        }
      ],
      "name": "LogGetRefund",
      "type": "event"
    },
    {
      "anonymous": false,
      "inputs": [
        {
          "indexed": false,
          "name": "owner",
          "type": "address"
        },
        {
          "indexed": false,
          "name": "balance",
          "type": "uint256"
        },
        {
          "indexed": false,
          "name": "eventId",
          "type": "uint256"
        }
      ],
      "name": "LogEndSale",
      "type": "event"
    },
    {
      "constant": false,
      "inputs": [
        {
          "name": "eventDescription",
          "type": "string"
        },
        {
          "name": "websiteUrl",
          "type": "string"
        },
        {
          "name": "numberOfTickets",
          "type": "uint256"
        }
      ],
      "name": "addEvent",
      "outputs": [
        {
          "name": "",
          "type": "uint256"
        }
      ],
      "payable": false,
      "stateMutability": "nonpayable",
      "type": "function"
    },
    {
      "constant": true,
      "inputs": [
        {
          "name": "eventId",
          "type": "uint256"
        }
      ],
      "name": "readEvent",
      "outputs": [
        {
          "name": "eventDescription",
          "type": "string"
        },
        {
          "name": "websiteUrl",
          "type": "string"
        },
        {
          "name": "ticketsAvailable",
          "type": "uint256"
        },
        {
          "name": "sales",
          "type": "uint256"
        },
        {
          "name": "isOpen",
          "type": "bool"
        }
      ],
      "payable": false,
      "stateMutability": "view",
      "type": "function"
    },
    {
      "constant": false,
      "inputs": [
        {
          "name": "eventId",
          "type": "uint256"
        },
        {
          "name": "nTickets",
          "type": "uint256"
        }
      ],
      "name": "buyTickets",
      "outputs": [],
      "payable": true,
      "stateMutability": "payable",
      "type": "function"
    },
    {
      "constant": false,
      "inputs": [
        {
          "name": "eventId",
          "type": "uint256"
        }
      ],
      "name": "getRefund",
      "outputs": [],
      "payable": false,
      "stateMutability": "nonpayable",
      "type": "function"
    },
    {
      "constant": true,
      "inputs": [
        {
          "name": "eventId",
          "type": "uint256"
        }
      ],
      "name": "getBuyerNumberTickets",
      "outputs": [
        {
          "name": "nTickets",
          "type": "uint256"
        }
      ],
      "payable": false,
      "stateMutability": "view",
      "type": "function"
    },
    {
      "constant": false,
      "inputs": [
        {
          "name": "eventId",
          "type": "uint256"
        }
      ],
      "name": "endSale",
      "outputs": [],
      "payable": false,
      "stateMutability": "nonpayable",
      "type": "function"
    }
  ],
  "bytecode": "0x6080604052606460015534801561001557600080fd5b50336000806101000a81548173ffffffffffffffffffffffffffffffffffffffff021916908373ffffffffffffffffffffffffffffffffffffffff16021790555060006002819055506114658061006d6000396000f3fe60806040526004361061007b5760003560e01c80638627df461161004e5780638627df46146103c7578063d2f0be99146103ff578063e1ba30a91461043a578063e7bd92b9146105735761007b565b806304d1a846146100805780630b791430146100bb5780633ddedd38146101fb5780634da19f201461024a575b600080fd5b34801561008c57600080fd5b506100b9600480360360208110156100a357600080fd5b810190808035906020019092919050505061059e565b005b3480156100c757600080fd5b506100f4600480360360208110156100de57600080fd5b810190808035906020019092919050505061078e565b60405180806020018060200187815260200186815260200185151515158152602001848152602001838103835289818151815260200191508051906020019080838360005b83811015610154578082015181840152602081019050610139565b50505050905090810190601f1680156101815780820380516001836020036101000a031916815260200191505b50838103825288818151815260200191508051906020019080838360005b838110156101ba57808201518184015260208101905061019f565b50505050905090810190601f1680156101e75780820380516001836020036101000a031916815260200191505b509850505050505050505060405180910390f35b34801561020757600080fd5b506102346004803603602081101561021e57600080fd5b8101908080359060200190929190505050610907565b6040518082815260200191505060405180910390f35b34801561025657600080fd5b506103b16004803603606081101561026d57600080fd5b810190808035906020019064010000000081111561028a57600080fd5b82018360208201111561029c57600080fd5b803590602001918460018302840111640100000000831117156102be57600080fd5b91908080601f016020809104026020016040519081016040528093929190818152602001838380828437600081840152601f19601f8201169050808301925050505050505091929192908035906020019064010000000081111561032157600080fd5b82018360208201111561033357600080fd5b8035906020019184600183028401116401000000008311171561035557600080fd5b91908080601f016020809104026020016040519081016040528093929190818152602001838380828437600081840152601f19601f82011690508083019250505050505050919291929080359060200190929190505050610964565b6040518082815260200191505060405180910390f35b6103fd600480360360408110156103dd57600080fd5b810190808035906020019092919080359060200190929190505050610c1c565b005b34801561040b57600080fd5b506104386004803603602081101561042257600080fd5b8101908080359060200190929190505050610f1f565b005b34801561044657600080fd5b506104736004803603602081101561045d57600080fd5b8101908080359060200190929190505050611134565b60405180806020018060200186815260200185815260200184151515158152602001838103835288818151815260200191508051906020019080838360005b838110156104cd5780820151818401526020810190506104b2565b50505050905090810190601f1680156104fa5780820380516001836020036101000a031916815260200191505b50838103825287818151815260200191508051906020019080838360005b83811015610533578082015181840152602081019050610518565b50505050905090810190601f1680156105605780820380516001836020036101000a031916815260200191505b5097505050505050505060405180910390f35b34801561057f57600080fd5b50610588611317565b6040518082815260200191505060405180910390f35b6000809054906101000a900473ffffffffffffffffffffffffffffffffffffffff1673ffffffffffffffffffffffffffffffffffffffff163373ffffffffffffffffffffffffffffffffffffffff1614610643576040517f08c379a000000000000000000000000000000000000000000000000000000000815260040180806020018281038252603f8152602001806113fb603f913960400191505060405180910390fd5b60006003600083815260200190815260200160002060050160006101000a81548160ff02191690831515021790555060003073ffffffffffffffffffffffffffffffffffffffff163190506000809054906101000a900473ffffffffffffffffffffffffffffffffffffffff1673ffffffffffffffffffffffffffffffffffffffff166108fc829081150290604051600060405180830381858888f193505050501580156106f5573d6000803e3d6000fd5b507f6497e6dff32a753fe6b3a2b3430e5f86d65c6e35cf360d52eb3494711d7d7a1c6000809054906101000a900473ffffffffffffffffffffffffffffffffffffffff168284604051808473ffffffffffffffffffffffffffffffffffffffff1673ffffffffffffffffffffffffffffffffffffffff168152602001838152602001828152602001935050505060405180910390a15050565b6003602052806000526040600020600091509050806000018054600181600116156101000203166002900480601f01602080910402602001604051908101604052809291908181526020018280546001816001161561010002031660029004801561083a5780601f1061080f5761010080835404028352916020019161083a565b820191906000526020600020905b81548152906001019060200180831161081d57829003601f168201915b505050505090806001018054600181600116156101000203166002900480601f0160208091040260200160405190810160405280929190818152602001828054600181600116156101000203166002900480156108d85780601f106108ad576101008083540402835291602001916108d8565b820191906000526020600020905b8154815290600101906020018083116108bb57829003601f168201915b5050505050908060020154908060030154908060050160009054906101000a900460ff16908060060154905086565b60006003600083815260200190815260200160002060040160003373ffffffffffffffffffffffffffffffffffffffff1673ffffffffffffffffffffffffffffffffffffffff168152602001908152602001600020549050919050565b60008060009054906101000a900473ffffffffffffffffffffffffffffffffffffffff1673ffffffffffffffffffffffffffffffffffffffff163373ffffffffffffffffffffffffffffffffffffffff1614610a0b576040517f08c379a000000000000000000000000000000000000000000000000000000000815260040180806020018281038252603f8152602001806113fb603f913960400191505060405180910390fd5b610a1361131d565b6001816080019015159081151581525050848160000181905250838160200181905250828160400181815250506002548160a0018181525050600160026000828254019250508190555080600360008360a0015181526020019081526020016000206000820151816000019080519060200190610a91929190611355565b506020820151816001019080519060200190610aae929190611355565b50604082015181600201556060820151816003015560808201518160050160006101000a81548160ff02191690831515021790555060a082015181600601559050507f7d1d82c13762b51876068c852c5d404d0fa38fb615c14eebefafb60bdb4bd1b28585858460a00151604051808060200180602001858152602001848152602001838103835287818151815260200191508051906020019080838360005b83811015610b69578082015181840152602081019050610b4e565b50505050905090810190601f168015610b965780820380516001836020036101000a031916815260200191505b50838103825286818151815260200191508051906020019080838360005b83811015610bcf578082015181840152602081019050610bb4565b50505050905090810190601f168015610bfc5780820380516001836020036101000a031916815260200191505b50965050505050505060405180910390a18060a001519150509392505050565b600115156003600084815260200190815260200160002060050160009054906101000a900460ff16151514610cb9576040517f08c379a000000000000000000000000000000000000000000000000000000000815260040180806020018281038252601a8152602001807f4576656e74206973206e6f74206f70656e20616e796d6f72652e00000000000081525060200191505060405180910390fd5b8060015402341015610d33576040517f08c379a00000000000000000000000000000000000000000000000000000000081526004018080602001828103825260208152602001807f4e6f7420656e6f75676820657468657220746f20627579207469636b6574732e81525060200191505060405180910390fd5b80600360008481526020019081526020016000206003015460036000858152602001908152602001600020600201540311610dd6576040517f08c379a00000000000000000000000000000000000000000000000000000000081526004018080602001828103825260188152602001807f4e6f7420656e6f756768207469636b657473206c6566742e000000000000000081525060200191505060405180910390fd5b806003600084815260200190815260200160002060040160003373ffffffffffffffffffffffffffffffffffffffff1673ffffffffffffffffffffffffffffffffffffffff168152602001908152602001600020600082825401925050819055508060036000848152602001908152602001600020600301600082825401925050819055503373ffffffffffffffffffffffffffffffffffffffff166108fc346001548402039081150290604051600060405180830381858888f19350505050158015610ea7573d6000803e3d6000fd5b507f15827fa78fedf80f93aa72ce61e705b1362cab60ae596b1bb327076fc3856c24338383604051808473ffffffffffffffffffffffffffffffffffffffff1673ffffffffffffffffffffffffffffffffffffffff168152602001838152602001828152602001935050505060405180910390a15050565b60006003600083815260200190815260200160002060040160003373ffffffffffffffffffffffffffffffffffffffff1673ffffffffffffffffffffffffffffffffffffffff1681526020019081526020016000205411610fe8576040517f08c379a000000000000000000000000000000000000000000000000000000000815260040180806020018281038252601e8152602001807f596f752068617665206e6f207469636b65747320746f20726566756e642e000081525060200191505060405180910390fd5b6000610ff382610907565b90503373ffffffffffffffffffffffffffffffffffffffff166108fc60015483029081150290604051600060405180830381858888f1935050505015801561103f573d6000803e3d6000fd5b5060006003600084815260200190815260200160002060040160003373ffffffffffffffffffffffffffffffffffffffff1673ffffffffffffffffffffffffffffffffffffffff168152602001908152602001600020819055508060036000848152602001908152602001600020600301600082825403925050819055507f73ebb2050cb3ee6869929e7a26925e92e201f14902e155037f1f90af931b3233338383604051808473ffffffffffffffffffffffffffffffffffffffff1673ffffffffffffffffffffffffffffffffffffffff168152602001838152602001828152602001935050505060405180910390a15050565b6060806000806000600360008781526020019081526020016000206000018054600181600116156101000203166002900480601f0160208091040260200160405190810160405280929190818152602001828054600181600116156101000203166002900480156111e65780601f106111bb576101008083540402835291602001916111e6565b820191906000526020600020905b8154815290600101906020018083116111c957829003601f168201915b50505050509450600360008781526020019081526020016000206001018054600181600116156101000203166002900480601f0160208091040260200160405190810160405280929190818152602001828054600181600116156101000203166002900480156112975780601f1061126c57610100808354040283529160200191611297565b820191906000526020600020905b81548152906001019060200180831161127a57829003601f168201915b5050505050935060036000878152602001908152602001600020600301546003600088815260200190815260200160002060020154039250600360008781526020019081526020016000206003015491506003600087815260200190815260200160002060050160009054906101000a900460ff16905091939590929450565b60025481565b6040518060c0016040528060608152602001606081526020016000815260200160008152602001600015158152602001600081525090565b828054600181600116156101000203166002900490600052602060002090601f016020900481019282601f1061139657805160ff19168380011785556113c4565b828001600101855582156113c4579182015b828111156113c35782518255916020019190600101906113a8565b5b5090506113d191906113d5565b5090565b6113f791905b808211156113f35760008160009055506001016113db565b5090565b9056fe596f75206d75737420626520746865206f776e6572206f66207468697320636f6e747261637420746f20696e766f6b6520746869732066756e6374696f6e2ea165627a7a72305820873f471c3935037082f0943bae6c59df907d5f03e46bf8c07bc149bced356f8e0029",
  "source": "pragma solidity ^0.5.0;\n\n    /*\n        The EventTicketsV2 contract keeps track of the details and ticket sales of multiple events.\n     */\ncontract EventTicketsV2 {\n\n    /*\n        Define an public owner variable. Set it to the creator of the contract when it is initialized.\n    */\n    address payable owner;\n    uint PRICE_TICKET = 100 wei;\n\n    /*\n        Create a variable to keep track of the event ID numbers.\n    */\n    uint public idGenerator;\n    \n    /*\n        Define an Event struct, similar to the V1 of this contract.\n        The struct has 6 fields: description, website (URL), totalTickets, sales, buyers, and isOpen.\n        Choose the appropriate variable type for each field.\n        The \"buyers\" field should keep track of addresses and how many tickets each buyer purchases.\n    */\n\n    struct Event {\n        string description;\n        string website;\n        uint totalTickets;\n        uint sales;\n        mapping(address => uint) buyers;\n        bool isOpen;\n        uint id;\n    }\n\n    /*\n        Create a mapping to keep track of the events.\n        The mapping key is an integer, the value is an Event struct.\n        Call the mapping \"events\".\n    */\n\n    mapping(uint => Event) public events;\n\n    constructor() public {\n        owner = msg.sender;\n        idGenerator = 0;\n    }\n\n    event LogEventAdded(string desc, string url, uint ticketsAvailable, uint eventId);\n    event LogBuyTickets(address buyer, uint eventId, uint numTickets);\n    event LogGetRefund(address accountRefunded, uint eventId, uint numTickets);\n    event LogEndSale(address owner, uint balance, uint eventId);\n\n    /*\n        Create a modifier that throws an error if the msg.sender is not the owner.\n    */\n\n    modifier isOwner() {\n        require(msg.sender == owner, \"You must be the owner of this contract to invoke this function.\");\n        _;\n    }\n\n    /*\n        Define a function called addEvent().\n        This function takes 3 parameters, an event description, a URL, and a number of tickets.\n        Only the contract owner should be able to call this function.\n        In the function:\n            - Set the description, URL and ticket number in a new event.\n            - set the event to open\n            - set an event ID\n            - increment the ID\n            - emit the appropriate event\n            - return the event's ID\n    */\n\n    function addEvent(string memory eventDescription, string memory websiteUrl, uint numberOfTickets)\n    public\n    isOwner\n    returns (uint)\n    {\n        // initialize new event\n        Event memory newEvent;\n        newEvent.isOpen = true;\n        newEvent.description = eventDescription;\n        newEvent.website = websiteUrl;\n        newEvent.totalTickets = numberOfTickets;\n        newEvent.id = idGenerator;\n\n        idGenerator += 1;\n\n        // add event to events mapping with a unique id\n        events[newEvent.id] = newEvent;\n\n        // emit event\n        emit LogEventAdded(eventDescription, websiteUrl, numberOfTickets, newEvent.id);\n        return(newEvent.id);\n    }\n\n    /*\n        Define a function called readEvent().\n        This function takes one parameter, the event ID.\n        The function returns information about the event this order:\n            1. description\n            2. URL\n            3. ticket available\n            4. sales\n            5. isOpen\n    */\n\n    function readEvent(uint eventId)\n    public\n    view\n    returns(string memory eventDescription, string memory websiteUrl, uint ticketsAvailable, uint sales, bool isOpen)\n    {\n        eventDescription = events[eventId].description;\n        websiteUrl = events[eventId].website;\n        ticketsAvailable = events[eventId].totalTickets - events[eventId].sales;\n        sales = events[eventId].sales;\n        isOpen = events[eventId].isOpen;\n    }\n\n    /*\n        Define a function called buyTickets().\n        This function allows users to buy tickets for a specific event.\n        This function takes 2 parameters, an event ID and a number of tickets.\n        The function checks:\n            - that the event sales are open\n            - that the transaction value is sufficient to purchase the number of tickets\n            - that there are enough tickets available to complete the purchase\n        The function:\n            - increments the purchasers ticket count\n            - increments the ticket sale count\n            - refunds any surplus value sent\n            - emits the appropriate event\n    */\n\n    function buyTickets(uint eventId, uint nTickets)\n    public\n    payable\n    {\n        require(events[eventId].isOpen == true, \"Event is not open anymore.\");\n        require(msg.value >= PRICE_TICKET * nTickets, \"Not enough ether to buy tickets.\");\n        require(events[eventId].totalTickets - events[eventId].sales > nTickets, \"Not enough tickets left.\");\n\n        events[eventId].buyers[msg.sender] += nTickets;\n        events[eventId].sales += nTickets;\n\n        // refund extra ether\n        msg.sender.transfer(nTickets * PRICE_TICKET - msg.value);\n\n        // emit event\n        emit LogBuyTickets(msg.sender, eventId, nTickets);\n    }\n\n    /*\n        Define a function called getRefund().\n        This function allows users to request a refund for a specific event.\n        This function takes one parameter, the event ID.\n        TODO:\n            - check that a user has purchased tickets for the event\n            - remove refunded tickets from the sold count\n            - send appropriate value to the refund requester\n            - emit the appropriate event\n    */\n\n    function getRefund(uint eventId) public {\n        require(events[eventId].buyers[msg.sender] > 0, \"You have no tickets to refund.\");\n        uint nTickets = getBuyerNumberTickets(eventId);\n\n        // transfer ether to user\n        msg.sender.transfer(nTickets * PRICE_TICKET);\n        \n        // make sure user has no tickets allocated\n        events[eventId].buyers[msg.sender] = 0;\n        \n        // subtract tickets from sales\n        events[eventId].sales -= nTickets;\n\n        // emit event\n        emit LogGetRefund(msg.sender,eventId, nTickets);\n    }\n\n    /*\n        Define a function called getBuyerNumberTickets()\n        This function takes one parameter, an event ID\n        This function returns a uint, the number of tickets that the msg.sender has purchased.\n    */\n\n    function getBuyerNumberTickets(uint eventId)\n    public\n    view\n    returns (uint nTickets)\n    {\n        nTickets = events[eventId].buyers[msg.sender];\n    }\n\n    /*\n        Define a function called endSale()\n        This function takes one parameter, the event ID\n        Only the contract owner can call this function\n        TODO:\n            - close event sales\n            - transfer the balance from those event sales to the contract owner\n            - emit the appropriate event\n    */\n\n    function endSale(uint eventId)\n    public\n    isOwner\n    {\n        events[eventId].isOpen = false;\n        uint finalBalance = address(this).balance;\n\n        // transfer balance to owner\n        owner.transfer(finalBalance);\n\n        // emit event\n        emit LogEndSale(owner, finalBalance, eventId);\n    }\n}\n",
  "sourcePath": "/Users/skonno/Documents/event-tickets-exercise-shkonno/contracts/EventTicketsV2.sol",
  "compiler": {
    "name": "solc",
    "version": "0.5.8+commit.23d335f2.Emscripten.clang"
  },
  "schemaVersion": "3.0.11",
  "updatedAt": "2019-06-15T10:26:59.400Z",
  "devdoc": {
    "methods": {}
  },
  "userdoc": {
    "methods": {}
  }
}